:10000000CEC0E8C050C4E6C0E5C0E4C0E3C049C10A
:10001000E1C0E0C0DFC0DEC0DDC0DCC0DBC0DAC0F4
:10002000D9C0D8C0D7C0D6C0D5C0D8C4D7C4D8C40A
:10003000E7C4D8C4D9C4DAC4DBC4DCC4DDC4DEC4BC
:10004000505332204B65796264205465726D20569E
:10005000302E393920202020202020202020202050
:100060002020202020202020002843292032303149
:1000700032204B42344F4944204C6162730030318E
:1000800032333435363738394142434445460040EF
:10009000303130343A303030323A30303030000D98
:1000A0000A007C2A7B2D792B703069317A337335C5
:1000B0006C377D39712E751172126B1374141C61BB
:1000C00032622163236424652B6634673368436995
:1000D0003B6A426B4B6C3A6D316E446F4D701571DB
:1000E0002D721B732C743C752A761D772278357916
:1000F0001A7A453016311E32263325342E353636DF
:100100003D373E38463929205A0D66080D09545BA3
:100110005B5D4E2D553D4C3B52270E2C412C492EFC
:100120005D5C4A2F0000001C4132422143234424DD
:10013000452B463447334843493B4A424B4B4C3AA4
:100140004D314E444F4D5015512D521B532C543CA4
:10015000552A561D57225835591A5A452916211E17
:1001600040262325242E25365E3D263E2A46282974
:10017000205A0D6608547B5B7D4E5F552B4C3A52DE
:10018000220E7E413C493E5D7C4A3F00007538723C
:10019000326B34743600004A2F5A0D0000001124CF
:1001A0001FBECFE5D1E0DEBFCDBF10E0A0E6B0E0DE
:1001B000E0E5FAE002C005900D92A236B107D9F74A
:1001C00010E0A2E6B0E001C01D92AA39B107E1F744
:1001D000BDD03CC415CFE9E6F0E0119280E0E139F2
:1001E000F807D9F708950F931F93182F062F6D3036
:1001F00091F5882339F0813009F050C08091630077
:10020000813009F5E0916200F0E0E759FF4F10827C
:1002100008D180E060E0FED089E690E00BD180E07C
:1002200061E0F8D0E9E6F0E0119280E0E139F8070A
:10023000D9F710926200113031F0112379F58091D5
:100240006300813059F58DE0F4D3809160008823FC
:1002500029F18AE022C0882331F08130F9F48091BD
:1002600063008130C9F4802FE2D080916200E82FD2
:10027000F0E0E759FF4F00838F5F80936200883280
:1002800018F087E280936200113031F0112331F4CD
:1002900080916300813011F4802FCBD31F910F9197
:1002A00008951F920F920FB60F9211242F933F9330
:1002B0004F935F936F937F938F939F93AF93BF936E
:1002C000EF93FF93F8946CB180E08DDF7894FF9109
:1002D000EF91BF91AF919F918F917F916F915F91BE
:1002E0004F913F912F910F900FBE0F901F90189537
:1002F0008FE890E091D38FE990E08ED30895CF926C
:10030000DF92EF92FF920F931F9300E410E0C80179
:1003100083D39FE9E92E90E0F92EC7017DD389E6CA
:10032000C82E80E0D82EC60177D3C70175D3E0DF91
:100330008CE09AD076D0C80189D0C60187D01F91B1
:100340000F91FF90EF90DF90CF900895109263008F
:1003500081E080936000C7D08CE086D083E036D304
:100360007894CDDF80E395E728EC30E0F901319710
:10037000F1F70197D9F7109262001092690051D0FD
:1003800089E690E057D080E061E044D0E9E6F0E013
:10039000119280E0E139F807D9F702C081E023DF4C
:1003A00045D1682F8823E1F3F9CF662311F0C29A73
:1003B00001C0C298BC9ABD9ABE9ABF9AC798C69807
:1003C000C598C49887FDC79A86FDC69A85FDC59ACB
:1003D00084FDC49AC398E0E2FEE43197F1F7C39A32
:1003E000C798C698C598C49883FDC79A82FDC69AD7
:1003F00081FDC59A80FDC49AC39880E29EE401976E
:10040000F1F7C39AC49AC59AC69AC79A089560E04C
:10041000CCDF0895662311F4805801C08054F7DFC3
:10042000089581E0F4DF089582E0F1DF089561E04E
:10043000BCDF0895CF93DF93EC0102C061E0B5DF2C
:1004400089918823D9F7DF91CF910895CF93DF93D6
:10045000EC0102C061E0A9DFFE01219684918823AE
:10046000C9F7DF91CF9108951F93182FBA9AB99ABF
:10047000BB9ABC9ABD9ABE9ABF9A80E09DE701974D
:10048000F1F7C59AC49AC39820E23EE4C9010197E6
:10049000F1F7C39A80E49FE10197F1F7C398C9018E
:1004A0000197F1F7C39A80ED97E0FC013197F1F7DE
:1004B000C398F9013197F1F7C39AFC013197F1F72D
:1004C000C498C398F9013197F1F7C39A0197F1F7EE
:1004D00088E29DDF88E09BDFA4DF86E098DF812F44
:1004E00096DF1F9108951092990085B7886085BFA7
:1004F0008BB780688BBF939A78940895DF93CF93DE
:100500000F92CDB7DEB7898380916600883010F0F6
:1005100080E00DC0E0916600F0E08981EF56FF4F6A
:100520008083809166008F5F8093660081E00F90EA
:10053000CF91DF91089580916600882311F490E0B7
:100540001AC0E0916600F0E0E057FF4F908120E094
:1005500030E0F9012F5F3F4FD901AF56BF4F8C916B
:10056000EF56FF4F80832830310599F78091660060
:10057000815080936600892F0895482F20E137E24B
:1005800003C0C9010197F1F780916700909168005D
:1005900086FDF7CF93988B9A80EF90E00197F1F763
:1005A0008C9A8B98939A81E0809361008091670088
:1005B0009091680080649093680080936700109227
:1005C00064004093650008951F93809167009091A7
:1005D000680084FF02C014E001C010E08091670051
:1005E0009091680083FD126080916700909168008F
:1005F00085FD11608DEEC1DF812FBFDF1F91089552
:1006000050E00AC0641739F42F5F3F4F280F391F9D
:10061000F901849108955E5F252F30E0FC01E20F1F
:10062000F31F4491442371F780E008951F932CC178
:100630001A3A31F48091670090916800946007C085
:10064000103E51F48091670090916800806890930B
:1006500068008093670018C1103F31F480916700F3
:10066000909168009160F3CF80916700909168004D
:1006700090FF39C080916700909168009E7F9093B1
:1006800068008093670080916700909168008F7781
:100690009093680080936700123111F0193531F49E
:1006A00080916700909168008E7FD1CF143131F432
:1006B00080916700909168008D7FC9CF113131F42E
:1006C00080916700909168008B7FC1CF173729F028
:1006D000183519F01E3709F0D7C080916700909146
:1006E00068009D7FB4CF809167009091680087FF7C
:1006F00016C080916700909168008F779093680092
:10070000809367001431B9F01131E9F087E991E085
:10071000612F76DF282F882309F4B6C0BBC01231C1
:1007200011F0193531F48091670090916800816073
:100730008ECF143131F4809167009091680082600F
:1007400086CF113131F48091670090916800846008
:100750007ECF1737C1F4809167009091680091FDBA
:1007600054C0809167009091680083FF06C080911B
:10077000670090916800877F39C0809167009091F1
:100780006800886033C01835C1F48091670090918B
:10079000680091FD3AC0809167009091680084FFE5
:1007A00006C080916700909168008F7E1FC0809185
:1007B000670090916800806119C01E3731F5809103
:1007C00067009091680091FD20C080916700909132
:1007D000680085FF06C080916700909168008F7D5A
:1007E00005C08091670090916800806290936800D6
:1007F0008093670080916700909168009260909369
:10080000680080936700E0DE3FC0809167009091B0
:10081000680080FF07C087E291E0612FF1DE282F9A
:100820008823C1F5809167009091680083FF07C01D
:100830008DE891E0612FE4DE282F882359F582EAC4
:1008400090E0612FDDDE282F8823F1F08091670092
:100850009091680080FF06C08091670090916800C9
:1008600084FF0CC0809167009091680084FF12C0E3
:10087000809167009091680080FD0CC0822F8156A6
:100880008A3140F4205206C056DE182F882309F022
:10089000CFCE20E0822F1F910895209167003091E4
:1008A0006800C90108951F920F920FB60F9211248C
:1008B0002F933F934F938F939F93EF93FF93809149
:1008C00067009091680086FF38C080916100893090
:1008D00029F48091640080FF05C02DC080916100E3
:1008E0008A3011F48C985EC0809161008B3071F475
:1008F00010926500109261008091670090916800ED
:100900008F7B90936800809367004CC020916500B6
:100910008091610030E090E0019702C03595279505
:100920008A95E2F720FF07C08C98809164008F5F62
:100930008093640037C08C9A35C080916100882311
:10094000C1F0809161008A30A0F4849B2BC040915B
:1009500065002091610030E02250304081E090E05D
:1009600002C0880F991F2A95E2F7482B4093650033
:1009700019C0809161008B30A9F49091650080913D
:100980006600883058F4E0916600F0E0EF56FF4FC3
:100990009083809166008F5F80936600109265005F
:1009A00010926100809161008F5F8093610085B734
:1009B000886085BFFF91EF919F918F914F913F91FB
:1009C0002F910F900FBE0F901F901895E82FF0E019
:1009D000EB30F105A8F4EB5EFF4F09948FEC11C0EA
:1009E00087E60FC082E20DC089E10BC080E109C03B
:1009F0008CE007C088E005C086E003C083E001C04A
:100A000083E389B912B88AB188618AB9579A08957F
:100A10008CB95D9BFECF089520E004C03CB95D9B7E
:100A2000FECF2F5FFC01E20FF11D34913323B1F7AC
:100A300008958CB95D9BFECF0895FC0103C08CB96D
:100A40005D9BFECF81918823D1F70895F894FFCF65
:020A50000101A2
:00000001FF
